:020000040000FA
:10060000000083311B2BC8347E1483310B1F092B50
:100610000A2B192B2100141C0E2B0F2B192B200039
:10062000141C132B142B192B4E088A004D080A009A
:1006300083317E10090083311D2B833103238331E5
:10064000E900F901FA01FB01FC01FD012030840001
:100650000030850035308D3147258331A03084004E
:100660000030850010308D31472583317E10200009
:100670008431392C20008D1B3E2B3F2B372C592BDE
:10068000031022008C1C03140318472B4A2B220052
:100690008C144C2B22008C1002302000DC00043023
:1006A000DB00BA30890B522BDB0B522BDC0B522BAD
:1006B000000020000D1B5D2B5E2B402B22008C10B8
:1006C0008D3141258331003A0319672B682B602B4C
:1006D0001F308F315527833120005608C000550840
:1006E000BF004008DB005B08D50001308631FC26E6
:1006F000833120003F08DB005B08D50000308631E5
:10070000FC26833120004008D6003F08D500FA308F
:10071000D7000030D8008F313527833120005608AC
:10072000BE005508BD00031022008C1C03140318E2
:100730009A2B9D2B22008C149F2B22008C100630AC
:100740002000DC001330DB00AD30890BA52BDB0B68
:10075000A52BDC0BA52B0032031022008C1C0314EC
:100760000318B32BB62B22008C14B82B22008C104C
:1007700006302000DC001330DB00AD30890BBE2BCF
:10078000DB0BBE2BDC0BBE2B0032031022008C1CBB
:1007900003140318CC2BCF2B22008C14D12B220056
:1007A0008C1006302000DC001330DB00AD30890BEC
:1007B000D72BDB0BD72BDC0BD72B003203102200FF
:1007C0008C1C03140318E52BE82B22008C14EA2B55
:1007D00022008C1006302000DC001330DB00AD302E
:1007E000890BF02BDB0BF02BDC0BF02B0032031012
:1007F00022008C1C03140318FE2B012C22008C14E5
:10080000032C22008C1006302000DC001330DB00AB
:10081000AD30890B092CDB0B092CDC0B092C0032C9
:10082000031022008C1C03140318172C1A2C22000E
:100830008C141C2C22008C1006302000DC0013309D
:10084000DB00AD30890B222CDB0B222CDC0B222CA5
:100850000032031022008C1C03140318302C332C9C
:1008600022008C14352C22008C100130382C0030E2
:1008700008008E31AF2684312000BF01C0018331D2
:100880003A238431003A031D462C472C4A2C8F31E1
:1008900097278431863108268431C1302000D50065
:1008A0000530D6008D312925843154302000D50003
:1008B0000D30D6008D311125843177302000D500E0
:1008C0000D30D6008C31FF24843120000D1C692CA2
:1008D0006A2C6E2C223024009A00712C20302400C7
:1008E0009A008B170B17200069088F317627843107
:1008F000031022008C1C031403187F2C822C22006E
:100900008C14842C22008C108D319725843120008A
:10091000E60066082100A0008D317025843120009A
:10092000E60066082100A4008E319B268431200059
:10093000E60066082100A10021082000E600660804
:100940002100A5008E31732684312000E600660860
:100950002100A3008E31872684312000E60066083E
:100960002100A70009308F31552784312000560817
:10097000E8005508E7006808E60066082100A900BD
:1009800020006708E60066082100A8008731B72725
:10099000843120005E08E8005D08E7006808E60092
:1009A00066082100AB0020006708E6006608210009
:1009B000AA00732C83311B2B8D3135258431003AED
:1009C0000319E32CE42C152DF12C8C31C624843131
:1009D000312D8C31CB248431312D8C31D52484318F
:1009E000312D20002F08D6005608DE000630203EAC
:1009F00086008701413F8A00403F0A008431200081
:100A0000D700D8015808003A0319072DED2C5708D4
:100A1000013A0319ED2C033A0319E52C013A0319A5
:100A2000E92C073A0319ED2CED2C20003C1017306F
:100A3000203E86008701403F84008501810A00082E
:100A40008D312F25843101302000B8020030B93BB0
:100A500038083904031D2D2D2E2D302D0630312D53
:100A6000033008008C317A2485318C31772485312C
:100A7000F7007708FA008C31B7248531003A031962
:100A8000422D432D482D0130F7007708FC00622DE0
:100A90000230F7007708FC00622D8D31D7258531B3
:100AA000FB01722D8C31B2248531003A0319592D86
:100AB0005A2D5E2D8D31CA258531722D8D31BD2582
:100AC0008531502D7C08F700F8017808003A0319A9
:100AD0006A2D722D7708013A03194D2D033A031937
:100AE000522D722D7B08F7007708FC008C317D2495
:100AF000853108008C31982485312000D5003708D5
:100B000086008701550881000130D5005508B707D8
:100B10000130B8020030B93B380839040319912D6F
:100B2000922D972D8C31AE2485310530C02DBC150A
:100B3000A12D8C31E4248531C02D8C31DF24853109
:100B4000C02D2C08D5005508DE0021088A00200899
:100B50000A0085312000D600D7015708003A031952
:100B6000B22D9D2D5608013A03199D2D033A031904
:100B7000992D013A0319992D073A03199D2D9D2DA1
:100B800008007D08F2000430F236890BC42D72088B
:100B90000F39F3007308F50004307502031CD12DE2
:100BA000D22DD32DF5017D080F39F2007208F60021
:100BB00004307602031CDD2DDE2DDF2DF60103301F
:100BC0007506031DE42DE52DF42D03307606031D77
:100BD000EA2DEB2DF42D8D317F25853199308C3127
:100BE000F32485310100072E7508F2000230F2353A
:100BF000890BF72DA0307207F30076087307F40015
:100C000074088600870101088C31F32485310800BF
:100C10008E311B2686316E308D3117258631FE30A0
:100C20008D311D25863132302000D5000530D600AB
:100C30008D310B25863100302000D5000030D600E4
:100C40008D3105258631F9302000D5000C30D600D5
:100C50008D31292586315B302000D5000D30D6003E
:100C60008D31112586314D302000D5000D30D60054
:100C70008C31FF24863100302000D5000030D600B2
:100C80008D31232586318C318024863145302000FA
:100C9000D7005708D40008002000DA01DB0155080E
:100CA00056040319542E552E842EDC01DC0A612EC5
:100CB0000130D535D60D890B592E0130D900590890
:100CC000DC07D61F642E652E582E0130DA35DB0D79
:100CD000890B662E56085802031D702E55085702C0
:100CE000031C732E742E792E5508D7025608D83B54
:100CF0005A140130D636D50C890B7A2E0130DC021D
:100D0000031D832E842E652E5B08D6005A08D5005D
:100D100008002000D600D701D70A3C19902E912E4A
:100D2000C22E5608D5005508B600BC103C153C1024
:100D30000E30D5005508BA00F430B4000130B500CB
:100D4000BC157030A0000C30A100AC017030A200C6
:100D50000C30A300AD017030A4000C30A500AE0132
:100D60007030A6000C30A700AF017230A8000C3024
:100D7000A900B0018C31832486318D31FF25863165
:100D80002000D701570808002000E100E201200000
:100D90006108863189268631003A031DD02ED12E76
:100DA000C72E60302000DA000E30DB006230E00039
:100DB0006008DC008D31F125863101302000D5003E
:100DC0000030D6005F308E312A2686310030200078
:100DD000DA00DB00DC018E310D2686318C31EE2409
:100DE00086318E31DD268631013A0319F82EF92E2F
:100DF000F12E2000620808002000D800230095187A
:100E0000022F032FFE2E20005808D600D7015608C7
:100E1000230091002000570823009200200055086D
:100E2000230093003F302000D6005608230095058C
:100E3000200003108B1F1D2F1E2F1F2F03148B1339
:100E40002300151555309600AA30960095141511FB
:100E50002000031C2C2F2D2F2E2F8B170800200075
:100E6000BC153F2F8C31D02487315E2F8C319B24D1
:100E7000873103305E2F8C31D52487315E2F2C08CB
:100E8000D5005508DE0021088A0020080A008731B5
:100E90002000D600D7015708003A0319502F3B2FE6
:100EA0005608013A03193B2F033A0319322F013A2E
:100EB0000319322F073A0319362F3B2F0800200061
:100EC0003C100230D5005508BB006E2F8C31D02469
:100ED00087318B2F8C31D52487318B2F2E08D5006D
:100EE0005508DE000430203E86008701413F8A001D
:100EF000403F0A0087312000D600D7015708003A4A
:100F00000319832F6A2F5608023A0319662F013AF4
:100F10000319662F6A2F08008C3183248731200043
:100F20003C1C932F942FA12F8D3135258731003A0A
:100F300003199B2F9C2FA12F0F302000D900590897
:100F4000BA0020003A08D900DA01D935DA0DE030CC
:100F50005907840087305A3D8500013F8A00003FD1
:100F60000A0087312000DB005B08BA00080020007F
:100F7000E101E2018D3141258731003A0319C12F8A
:100F8000C22FBA2F1F308F315527873120005608C6
:100F9000E0005508DF006008D6005F08D5003E0875
:100FA000D8003D08D70086314C26873120005608EE
:100FB000E2005508E1006135DD00620DDE00080049
:100FC000C1340C349F340D348F340D34DC3404348C
:100FD0007A34053469340D342F340734C6340C3474
:100FE000CB340C34D0340C34D5340C34DA340C34E7
:100FF000DF340C34E4340C34E9340C345F3407341B
:0C100000FA340034F434013401340034BC
:1018E000013008000530080024001A080800240010
:1018F0001908080020001410080024001D16080014
:1019000021001414080020009111080024009512F1
:10191000080021009111080024001614080024007A
:1019200096140800240016150800240096150800D7
:101930002400110808002000911508008C3177243C
:101940008C310800813022009700080016302100F9
:101950009700080024009616161608002400961218
:101960001616080024001C0E890C013908002400FA
:101970001C0C890C01390800F00070082400990043
:1019800008002000BC10BB010E3008008C318F24F1
:101990008C31013008008C318F248C3102300800EA
:1019A0008C318F248C31013008008C3192248C31A1
:1019B000003008008C31AE248C31053008008C31A9
:1019C000AA248C310A3008008C31AA248C310930C9
:1019D00008002000BC10BB010E30080000308F3121
:1019E00016278C310800F10071088C31BC248C3131
:1019F0000800200054088C31BC248C3108002000E1
:101A00005608C8005508C700080020005608C60040
:101A10005508C500080020005608CE005508CD0026
:101A2000080020005608CC005508CB000800200014
:101A3000D500550824009A0008002000D50055085C
:101A400024009B00080020005608C4005508C3006D
:101A5000080020005608CA005508C90008002000E8
:101A6000D50055082400910008002400160E890CAA
:101A7000890C013908002000911D3F2D402D3B2D80
:101A800008002200170E890C890C01390800640037
:101A900080010131890B482D00348C3174248D3143
:101AA000F0007008F90008008C319E248D31F000A0
:101AB0007008FD0008008C3177248D31F00070082B
:101AC000FA00080070302100990098012200960168
:101AD000080020003C108C3195248D310430080022
:101AE0002000DF0157308631C4268D3108008C314B
:101AF0009E248D318936F0007008FD000800E0302A
:101B0000F0000F30F1008E313A268D31080001309F
:101B100021009D00A0309E009B019C010800200038
:101B20003C1436358D312F258D31033008002000CF
:101B3000DF01DF0A57308631C4268D3108002000CE
:101B40003C140314360D8D312F258D3105300800DE
:101B50004030240094000830950096011330920024
:101B60009512080024009C0106302000D50055087D
:101B700024009D049E019D1208002000470848048F
:101B80000319C32DC42DC92D48088A0047080A002F
:101B90008D31080020004B084C040319D02DD12DA5
:101BA000D62D4C088A004B080A008D310800200011
:101BB00049084A040319DD2DDE2DE32D4A088A0069
:101BC00049080A008D310800EB2D8D313B258D3100
:101BD00087318C278D312000BC18EF2DF02DE52D9D
:101BE000080020005B08D6005A08D5005C08DD001C
:101BF0005D08D70000308F31B8278D3108002400F0
:101C0000951A032E042E0C2E4030940008309500B7
:101C10009601133092009516080020005B08D6004C
:101C20005A08D5005C08DD005D08D70002308F310E
:101C3000B8278E31080024009D1A1F2E202E292E31
:101C40009C0106302000D500550824009D049E010B
:101C50009D1608002000D800BC1D2F2E302E392ED6
:101C60005808D7005708B7005608B9005508B800FB
:101C7000BC11080070082300910071089200151330
:101C800015159517151655309600AA30960095141F
:101C90000000000023001511080001302000D500CD
:101CA0000030D6005E088E312A268E3100302000AA
:101CB000DA00DB00DC018D31F1258E3104300800C3
:101CC00001302000D5000030D6005E088E312A2673
:101CD0008E3100302000DA00DB00DC018D31F1258F
:101CE0008E310230080010302000E3006308DF006E
:101CF00057308631C4268E312000E4006408E500A8
:101D000065089839E3006308E500650808000F30AE
:101D10002000E3006308DF0057308631C4268E318F
:101D20002000E4006408E50065089839E3006308D2
:101D3000E5006508080002302000E3006308DF00CA
:101D400057308631C4268E312000E4006408E50057
:101D50006508F039E3006308E500650808008D3187
:101D6000A8258E318D31B2258E318E31C5268E312A
:101D70008D3162258E318C31A6248E318C31A22496
:101D80008E318D3187258E310800023022008C0083
:101D90008D01FD3021008C00FF308D0008302300C4
:101DA0008D0019308C00C03024008D008C01210082
:101DB000951322009D019E0108002000D601D60A3D
:101DC000BC18E32EE42EF72E3C11FF30D500550849
:101DD000B6008C3183248E318C3189248E318C3144
:101DE00086248E3120003B08D5005508D6005608C1
:101DF00008002000D800640023009518002F022F4F
:101E00002000FB2E20005808D500D60155082300DD
:101E1000910020005608230092003F302000D70098
:101E20005708230095051514130808002000DD004D
:101E3000DE01DE0ABC181D2F1E2F322FBC14DE015E
:101E40005D080319242F252F282FBA01BA0A2C2F39
:101E50000230DC005C08BA008C318C248F318D316B
:101E6000E4258F3120005E0808002000D901DA0146
:101E7000551C3B2F3C2F402F5708D9075808DA3DF7
:101E80000130D735D80D890B412F0130D636D50C0E
:101E9000890B462F55085604031D4F2F502F382FFE
:101EA0005A08D6005908D50008002000D800580864
:101EB000D700D70DD70D21001D0820005706833904
:101EC000570621009D001D140330890B652F00006B
:101ED00021009D149D186D2F6E2F6A2F1C08200065
:101EE000D60021001B082000D50008002000D600E5
:101EF000D701D801892F1A302000D500F830890B7E
:101F00007F2FD50B7F2F000001302000D707003036
:101F1000D83D5808803AD50080305502031D922FD5
:101F200056085702031C952F962F7B2F080001306F
:101F30008E31F9268F312000DB005B08C0000030B5
:101F40008E31F9268F312000DB005B08BF0040088E
:101F5000D6003F08D500FA30D7000030D8008F31C6
:101F600035278F3120005608BE005508BD000800F7
:101F70002000D900550856040319BF2FC02FD12FB8
:101F80005935203E860087015508C03F5608C13F9D
:101F90005708D80059082C3E860087015808810050
:101FA000DE2F5935203E860087017030C03F0C304F
:0E1FB000C13F59082C3E8600870181010800C0
:020000040001F9
:04000E00E4FFFFFE0E
:00000001FF
