:020000040000FA
:10060000000083311B2BC8347E1483310B1F092B50
:100610000A2B192B2100141C0E2B0F2B192B200039
:10062000141C132B142B192B4E088A004D080A009A
:1006300083317E10090083311D2B833103238331E5
:10064000E9000A3084008E308500A030860000303A
:10065000870010308D3117258331F901FA01FB0134
:10066000FC01FD01203084000030850035308D31E3
:10067000112583317E10200084313D2C20008D1BFC
:10068000422B432B3B2C5D2B031022008C1C0314AC
:1006900003184B2B4E2B22008C14502B22008C1055
:1006A00002302000DC000430DB00BA30890B562B0E
:1006B000DB0B562BDC0B562B000020000D1B612B97
:1006C000622B442B22008C108D310B258331003A94
:1006D00003196B2B6C2B642B1F308F313527833123
:1006E00020005608C0005508BF004008DB005B082A
:1006F000D500013087310C27833120003F08DB0013
:100700005B08D500003087310C278331200040087A
:10071000D6003F08D500FA30D7000030D8008F311E
:100720001527833120005608BE005508BD00031070
:1007300022008C1C031403189E2BA12B22008C1466
:10074000A32B22008C1006302000DC001330DB00CD
:10075000AD30890BA92BDB0BA92BDC0BA92B0032AD
:10076000031022008C1C03140318B72BBA2B220091
:100770008C14BC2B22008C1006302000DC001330BF
:10078000DB00AD30890BC22BDB0BC22BDC0BC22B89
:100790000032031022008C1C03140318D02BD32B1F
:1007A00022008C14D52B22008C1006302000DC0097
:1007B0001330DB00AD30890BDB2BDB0BDB2BDC0BD1
:1007C000DB2B0032031022008C1C03140318E92BCE
:1007D000EC2B22008C14EE2B22008C100630200013
:1007E000DC001330DB00AD30890BF42BDB0BF42B7A
:1007F000DC0BF42B0032031022008C1C03140318B2
:10080000022C052C22008C14072C22008C100630A0
:100810002000DC001330DB00AD30890B0D2CDB0B2E
:100820000D2CDC0B0D2C0032031022008C1C031449
:1008300003181B2C1E2C22008C14202C22008C1040
:1008400006302000DC001330DB00AD30890B262C95
:10085000DB0B262CDC0B262C0032031022008C1C18
:1008600003140318342C372C22008C14392C22004A
:100870008C1001303C2C003008008E318F268431E2
:100880002000BF01C00183313E238431003A031DA3
:100890004A2C4B2C4E2C8F317727843186311826E9
:1008A000843136302000D5000530D6008C31F32459
:1008B000843124302000D5000D30D6008C31DB246B
:1008C000843147302000D5000D30D6008C31C9244A
:1008D000843120000D1C6D2C6E2C722C22302400D3
:1008E0009A00752C203024009A008B170B172000DB
:1008F00069088F3156278431031022008C1C0314A1
:100900000318832C862C22008C14882C22008C1037
:100910008D31672584312000E60066082100A000A3
:100920008D31402584312000E60066082100A400B6
:100930008E317B2684312000E60066082100A1006C
:1009400021082000E60066082100A5008E3153260C
:1009500084312000E60066082100A3008E3167265E
:1009600084312000E60066082100A70009308F319D
:100970003527843120005608E8005508E70068084C
:10098000E60066082100A90020006708E600660866
:100990002100A8008731C727843120005E08E800C5
:1009A0005D08E7006808E60066082100AB0020004B
:1009B0006708E60066082100AA00772C83311B2B0C
:1009C0008C31FF248431003A0319E72CE82C192DCF
:1009D000F52C8C3190248431352D8C319524843143
:1009E000352D8C319F248431352D20002F08D600E1
:1009F0005608DE000630203E86008701413F8A000F
:100A0000403F0A0085312000D700D8015808003A3D
:100A100003190B2DF12C5708013A0319F12C033A55
:100A20000319E92C013A0319ED2C073A0319F12CAB
:100A3000F12C20003C101730203E86008701403FFB
:100A400084008501810A00088C31F9248431013049
:100A50002000B8020030B93B38083904031D312D9D
:100A6000322D342D0630352D033008007D08F2007C
:100A70000430F236890B392D72080F39F3007308F0
:100A8000F50004307502031C462D472D482DF50155
:100A90007D080F39F2007208F60004307602031C5C
:100AA000522D532D542DF60103307506031D592D7B
:100AB0005A2D752D03307606031D5F2D602D752D83
:100AC0008D314F258531FF308C31BD248531023089
:100AD000F3000430F200BA30890B6C2DF20B6C2D50
:100AE000F30B6C2D00320100882D7508F2000230E6
:100AF000F235890B782DA0307207F3007608730762
:100B0000F40074088600870101088C31BD2485310A
:100B100008008C31442485318C3141248531F70023
:100B20007708FA008C3181248531003A0319992D18
:100B30009A2D9F2D0130F7007708FC00B92D023067
:100B4000F7007708FC00B92D8D31A7258531FB0111
:100B5000C92D8C317C248531003A0319B02DB12D7B
:100B6000B52D8D319A258531C92D8D318D25853154
:100B7000A72D7C08F700F8017808003A0319C12D69
:100B8000C92D7708013A0319A42D033A0319A92D99
:100B9000C92D7B08F7007708FC008C31472485318C
:100BA00008008C31622485312000D500370886008A
:100BB0008701550881000130D5005508B70701307D
:100BC000B8020030B93B380839040319E82DE92D83
:100BD000EE2D8C31782485310530172EBC15F82D7B
:100BE0008C31AE248531172E8C31A9248531172EF6
:100BF0002C08D5005508DE0021088A0020080A00CC
:100C000086312000D600D7015708003A0319092E73
:100C1000F42D5608013A0319F42D033A0319F02D67
:100C2000013A0319F02D073A0319F42DF42D0800A9
:100C30008D31EB2586316E308C31E1248631FE30EA
:100C40008C31E724863189302000D5000530D6006C
:100C50008C31D524863100302000D5000030D600FC
:100C60008C31CF248631C3302000D5000C30D60023
:100C70008C31F32486312B302000D5000D30D60086
:100C80008C31DB2486311D302000D5000D30D6009C
:100C90008C31C924863100302000D5000030D600C8
:100CA0008C31ED2486318C314A2486314530200048
:100CB000D7005708D40008002000DA01DB015508EE
:100CC00056040319642E652E942EDC01DC0A712E65
:100CD0000130D535D60D890B692E0130D900590860
:100CE000DC07D61F742E752E682E0130DA35DB0D29
:100CF000890B762E56085802031D802E5508570280
:100D0000031C832E842E892E5508D7025608D83B03
:100D10005A140130D636D50C890B8A2E0130DC02EC
:100D2000031D932E942E752E5B08D6005A08D5000D
:100D300008002000D600D701D70A3C19A02EA12E0A
:100D4000D22E5608D5005508B600BC103C153C10F4
:100D50000E30D5005508BA00F430B4000130B500AB
:100D6000BC153A30A0000C30A100AC013A30A20012
:100D70000C30A300AD013A30A4000C30A500AE0148
:100D80003A30A6000C30A700AF013C30A8000C3070
:100D9000A900B0018C314D2486318D31CF258631AB
:100DA0002000D701570808002000E100E2012000E0
:100DB0006108863199268631003A031DE02EE12E26
:100DC000D72E40302000DA000E30DB006230E00029
:100DD0006008DC008D31C125863101302000D5004E
:100DE0000030D6005F308D31FA258631003020008A
:100DF000DA00DB00DC018D31DD2586318C31B82451
:100E000086318E31BD268631013A0319082F092F0C
:100E1000012F2000620808002000D8002300951848
:100E2000122F132F0E2F20005808D600D701560876
:100E3000230091002000570823009200200055084D
:100E4000230093003F302000D6005608230095056C
:100E5000200003108B1F2D2F2E2F2F2F03148B13E9
:100E60002300151555309600AA30960095141511DB
:100E70002000031C3C2F3D2F3E2F8B170800200025
:100E8000BC154F2F8C319A2487316E2F8C316524FD
:100E9000873103306E2F8C319F2487316E2F2C08C1
:100EA000D5005508DE0021088A0020080A00873195
:100EB0002000D600D7015708003A0319602F4B2FA6
:100EC0005608013A03194B2F033A0319422F013AEE
:100ED0000319422F073A0319462F4B2F0800200011
:100EE0003C100230D5005508BB007E2F8C319A246F
:100EF00087319B2F8C319F2487319B2F2E08D50063
:100F00005508DE000430203E86008701413F8A00FC
:100F1000403F0A0087312000D600D7015708003A29
:100F20000319932F7A2F5608023A0319762F013AA4
:100F30000319762F7A2F08008C314D248731200039
:100F40003C1CA32FA42FB12F8C31FF248731003AF2
:100F50000319AB2FAC2FB12F0F302000D900590847
:100F6000BA0020003A08D900DA01D935DA0DF0309C
:100F70005907840087305A3D8500013F8A00003FB1
:100F80000A0087312000DB005B08BA00080020005F
:100F9000E101E2018D310B258731003A0319D12F90
:100FA000D22FCA2F1F308F313527873120005608A6
:100FB000E0005508DF006008D6005F08D5003E0855
:100FC000D8003D08D70086315C26873120005608BE
:100FD000E2005508E1006135DD00620DDE00080029
:100FE0008B340C346F340D345F340D34E0340434FE
:100FF000D134053439340D343F34073490340C3453
:1010000095340C349A340C349F340C34A4340C349E
:10101000A9340C34AE340C34B3340C346F3407348C
:0C102000FA340034F4340134013400349C
:10187400013008000530080024001A08080024007C
:101884001908080020001410080024001D16080080
:10189400210014140800200091110800240095125E
:1018A40008002100911108002400161408002400E7
:1018B4009614080024001615080024009615080044
:1018C4002400110808002000911508008C314124DF
:1018D4008C31080081302200970008001630210066
:1018E4009700080024009616161608002400961285
:1018F4001616080024001C0E890C01390800240067
:101904001C0C890C01390800F000700824009900AF
:1019140008002000BC10BB010E3008008C31592493
:101924008C31013008008C3159248C31023008008C
:101934008C3159248C31013008008C315C248C3179
:10194400003008008C3178248C31053008008C314B
:1019540074248C310A3008008C3174248C310930A1
:1019640008002000BC10BB010E30080000308E318E
:10197400F6268C310800F10071088C3186248C31F4
:101984000800200054088C3186248C310800200083
:101994005608C8005508C700080020005608C600AD
:1019A4005508C500080020005608CE005508CD0093
:1019B400080020005608CC005508CB000800200081
:1019C400D500550824009A0008002000D5005508C9
:1019D40024009B00080020005608C4005508C300DA
:1019E400080020005608CA005508C9000800200055
:1019F400D50055082400910008002400160E890C17
:101A0400890C013908002000911D092D0A2D052D8E
:101A140008002200170E890C890C013908006400A3
:101A240080010131890B122D0034FE0012001E00CA
:101A3400FE0B182D00348C313E248D31F0007008DB
:101A4400F90008008C3168248D31F0007008FD0025
:101A540008008C3141248D31F0007008FA00080030
:101A6400703021009900980122009601080020009E
:101A74003C108C315F248D31043008002000DF01DC
:101A840057308631D4268D3108008C3168248D314D
:101A94008936F0007008FD000800E030F0000F30D7
:101AA400F1008E311A268D310800013021009D008D
:101AB400A0309E009B019C01080020003C14363598
:101AC4008C31F9248D31033008002000DF01DF0A56
:101AD40057308631D4268D31080020003C1403147D
:101AE400360D8C31F9248D31053008004030240046
:101AF4009400083095009601133092009512080066
:101B040024009C0106302000D500550824009D04C3
:101B14009E019D1208002000470848040319932DD4
:101B2400942D992D48088A0047080A008D31080031
:101B340020004B084C040319A02DA12DA62D4C0800
:101B44008A004B080A008D310800200049084A0425
:101B54000319AD2DAE2DB32D4A088A0049080A0099
:101B64008D310800BB2D8D3105258D3187319C27A2
:101B74008D312000BC18BF2DC02DB52D08002000CC
:101B84005B08D6005A08D5005C08DD005D08D70064
:101B940000308F3198278D3108002400951AD32DF9
:101BA400D42DDC2D4030940008309500960113307C
:101BB40092009516080020005B08D6005A08D5004C
:101BC4005C08DD005D08D70002308F3198278D3125
:101BD400080024009D1AEF2DF02DF92D9C010630EC
:101BE4002000D500550824009D049E019D16080080
:101BF4002000D800BC1DFF2D002E092E5808D70048
:101C04005708B7005608B9005508B800BC110800B9
:101C140000340134023403341034113412341334D4
:101C240020342134223423343034313432343334C4
:101C3400700823009100710892001513151595176B
:101C4400151655309600AA30960095140000000031
:101C540023001511080001302000D5000030D60003
:101C64005E088D31FA258E3100302000DA00DB0069
:101C7400DC018D31C1258E31043008000130200093
:101C8400D5000030D6005E088D31FA258E31003043
:101C94002000DA00DB00DC018D31C1258E310230F9
:101CA400080010302000E3006308DF00573086315D
:101CB400D4268E312000E4006408E50065089839D4
:101CC400E3006308E500650808000F302000E30026
:101CD4006308DF0057308631D4268E312000E400BB
:101CE4006408E50065089839E3006308E5006508C1
:101CF400080002302000E3006308DF00573086311B
:101D0400D4268E312000E4006408E5006508F0392B
:101D1400E3006308E500650808008D3178258E31FD
:101D24008D3182258E318E31A5268E318D3132252D
:101D34008E318C3170248E318C316C248E318D3106
:101D440057258E310800023022008C008D01FD30B1
:101D540021008C00FF308D00083023008D001930E5
:101D64008C00C03024008D008C01210095132200CA
:101D74009D019E0108002000D601D60ABC18C32E7E
:101D8400C42ED72E3C11FF30D5005508B6008C3137
:101D94004D248E318C3153248E318C3150248E312C
:101DA40020003B08D5005508D6005608080020003E
:101DB400D800640023009518E02EE22E2000DB2ECC
:101DC40020005808D500D6015508230091002000B2
:101DD4005608230092003F302000D7005708230004
:101DE40095051514130808002000DD00DE01DE0A45
:101DF400BC18FD2EFE2E122FBC14DE015D08031943
:101E0400042F052F082FBA01BA0A0C2F0230DC0068
:101E14005C08BA008C3156248E318D31B4258E3154
:101E240020005E0808002000D901DA01551C1B2F90
:101E34001C2F202F5708D9075808DA3D0130D73511
:101E4400D80D890B212F0130D636D50C890B262FBE
:101E540055085604031D2F2F302F182F5A08D6006B
:101E64005908D50008002000D8005808D700D70D1D
:101E7400D70D21001D08200057068339570621007D
:101E84009D001D140330890B452F000021009D1473
:101E94009D184D2F4E2F4A2F1C082000D6002100DC
:101EA4001B082000D50008002000D600D701D80167
:101EB400692F1A302000D500F830890B5F2FD50B1D
:101EC4005F2F000001302000D7070030D83D5808AC
:101ED400803AD50080305502031D722F56085702F0
:101EE400031C752F762F5B2F080001308E31D92605
:101EF4008F312000DB005B08C00000308E31D92612
:101F04008F312000DB005B08BF004008D6003F088B
:101F1400D500FA30D7000030D8008F3115278F3123
:101F240020005608BE005508BD0008002000D90056
:101F34005508560403199F2FA02FB12F5935203E61
:101F4400860087015508C03F5608C13F5708D8008E
:101F540059082C3E8600870158088100BE2F593548
:101F6400203E860087013A30C03F0C30C13F5908FB
:0A1F74002C3E860087018101080061
:020000040001F9
:04000E00E4FFFFFE0E
:00000001FF
