:020000040000FA
:10060000000083311B2BC8347E1483310B1F092B50
:100610000A2B192B2100141C0E2B0F2B192B200039
:10062000141C132B142B192B4E088A004D080A009A
:1006300083317E10090083311D2B833103238331E5
:10064000E900F901FA01FB01FC01FD012030840001
:100650000030850035308D3189258331A03084000C
:10066000003085000C308D31892583317E102000CB
:100670008431392C20008D1B3E2B3F2B372C592BDE
:10068000031022008C1C03140318472B4A2B220052
:100690008C144C2B22008C1002302000DC00043023
:1006A000DB00BA30890B522BDB0B522BDC0B522BAD
:1006B000000020000D1B5D2B5E2B402B22008C10B8
:1006C0008D3183258331003A0319672B682B602B0A
:1006D0001F308F317C27833120005608C000550819
:1006E000BF004008DB005B08D50001308631B5262D
:1006F000833120003F08DB005B08D50000308631E5
:10070000B526833120004008D6003F08D500FA30D6
:10071000D7000030D8008F315C2783312000560885
:10072000BE005508BD00031022008C1C03140318E2
:100730009A2B9D2B22008C149F2B22008C100630AC
:100740002000DC001330DB00AD30890BA52BDB0B68
:10075000A52BDC0BA52B0032031022008C1C0314EC
:100760000318B32BB62B22008C14B82B22008C104C
:1007700006302000DC001330DB00AD30890BBE2BCF
:10078000DB0BBE2BDC0BBE2B0032031022008C1CBB
:1007900003140318CC2BCF2B22008C14D12B220056
:1007A0008C1006302000DC001330DB00AD30890BEC
:1007B000D72BDB0BD72BDC0BD72B003203102200FF
:1007C0008C1C03140318E52BE82B22008C14EA2B55
:1007D00022008C1006302000DC001330DB00AD302E
:1007E000890BF02BDB0BF02BDC0BF02B0032031012
:1007F00022008C1C03140318FE2B012C22008C14E5
:10080000032C22008C1006302000DC001330DB00AB
:10081000AD30890B092CDB0B092CDC0B092C0032C9
:10082000031022008C1C03140318172C1A2C22000E
:100830008C141C2C22008C1006302000DC0013309D
:10084000DB00AD30890B222CDB0B222CDC0B222CA5
:100850000032031022008C1C03140318302C332C9C
:1008600022008C14352C22008C100130382C0030E2
:1008700008008E31D62684312000BF01C0018331AB
:100880003A238431003A031D462C472C4A2C8F31E1
:10089000BE2784318531C1258431E8302000D50060
:1008A0000630D6008D316B25843196302000D5007E
:1008B0000D30D6008D3153258431B9302000D5005C
:1008C0000D30D6008D314125843120000D1C692C5E
:1008D0006A2C6E2C223024009A00712C20302400C7
:1008E0009A008B170B17200069088F319D278431E0
:1008F000031022008C1C031403187F2C822C22006E
:100900008C14842C22008C108D31D1258431200050
:10091000E60066082100A0008D31B2258431200058
:10092000E60066082100A4008E31C2268431200032
:10093000E60066082100A10021082000E600660804
:100940002100A5008E319A2684312000E600660839
:100950002100A3008E31AE2684312000E600660817
:100960002100A70009308F317C27843120005608F0
:10097000E8005508E7006808E60066082100A900BD
:1009800020006708E60066082100A8008731A2273A
:10099000843120005E08E8005D08E7006808E60092
:1009A00066082100AB0020006708E6006608210009
:1009B000AA00732C83311B2B8D3177258431003AAB
:1009C0000319E32CE42C152DF12C8D3108258431ED
:1009D000312D8D310D258431312D8D311725843107
:1009E000312D20002F08D6005608DE000630203EAC
:1009F00086008701413F8A00403F0A008431200081
:100A0000D700D8015808003A0319072DED2C5708D4
:100A1000013A0319ED2C033A0319E52C013A0319A5
:100A2000E92C073A0319ED2CED2C20003C1017306F
:100A3000203E86008701403F84008501810A00082E
:100A40008D317125843101302000B8020030B93B6E
:100A500038083904031D2D2D2E2D302D0630312D53
:100A6000033008008C31BC2485318C31B9248531A8
:100A7000F7007708FA008C31F9248531003A031920
:100A8000422D432D482D0130F7007708FC00622DE0
:100A90000230F7007708FC00622D8E311126853177
:100AA000FB01722D8C31F4248531003A0319592D44
:100AB0005A2D5E2D8E3104268531722D8D31F7250C
:100AC0008531502D7C08F700F8017808003A0319A9
:100AD0006A2D722D7708013A03194D2D033A031937
:100AE000522D722D7B08F7007708FC008C31BF2453
:100AF000853108008C31DA2485312000D500370893
:100B000086008701550881000130D5005508B707D8
:100B10000130B8020030B93B380839040319912D6F
:100B2000922D972D8C31F02485310530C02DBC15C8
:100B3000A12D8D3126258531C02D8D312125853181
:100B4000C02D2C08D5005508DE0021088A00200899
:100B50000A0085312000D600D7015708003A031952
:100B6000B22D9D2D5608013A03199D2D033A031904
:100B7000992D013A0319992D073A03199D2D9D2DA1
:100B800008008E31552685316E308D3159258531DD
:100B9000FE308D315F25853132302000D5000530A3
:100BA000D6008D314D25853100302000D500003034
:100BB000D6008D31472585313B302000D5000D30E2
:100BC000D6008D316B2585319D302000D5000D304C
:100BD000D6008D31532585318F302000D5000D3062
:100BE000D6008D314125853100302000D500003000
:100BF000D6008D31652585318C31C2248531453053
:100C00002000D7005708D40008002000DA01DB01DB
:100C10005508560403190D2E0E2E3D2EDC01DC0A5C
:100C20001A2E0130D535D60D890B122E0130D90080
:100C30005908DC07D61F1D2E1E2E112E0130DA3565
:100C4000DB0D890B1F2E56085802031D292E55084F
:100C50005702031C2C2E2D2E322E5508D702560873
:100C6000D83B5A140130D636D50C890B332E0130BF
:100C7000DC02031D3C2E3D2E1E2E5B08D6005A08BA
:100C8000D50008002000D600D701D70A3C19492E0C
:100C90004A2E7B2E5608D5005508B600BC103C15D0
:100CA0003C100E30D5005508BA00F430B4000130C5
:100CB000B500BC15B230A0000C30A100AC01B230C0
:100CC000A2000C30A300AD01B230A4000C30A5008E
:100CD000AE01B230A6000C30A700AF01B430A800BE
:100CE0000C30A900B0018C31C52486318E313926F3
:100CF00086312000D701570808002000E100E201FA
:100D000020006108863142268631003A031D892E73
:100D10008A2E802E87302000DA000E30DB00623011
:100D2000E0006008DC008E312B2686310130200087
:100D3000D5000030D6005F308E3164268631003019
:100D40002000DA00DB00DC018E31472686318D3150
:100D5000302586318F3104278631013A0319B12EAF
:100D6000B22EAA2E2000620808002000D80023001E
:100D70009518BB2EBC2EB72E20005808D600D701E0
:100D800056082300910020005708230092002000FD
:100D90005508230093003F302000D600560823005A
:100DA0009505200003108B1FD62ED72ED82E0314A6
:100DB0008B132300151555309600AA309600951414
:100DC00015112000031CE52EE62EE72E8B170800D8
:100DD0007D08F2000430F236890BEB2E72080F39D1
:100DE000F3007308F50003307502031CF82EF92E8A
:100DF000FA2EF5017D080F39F2007208F600043072
:100E00007602031C042F052F062FF6017508F20049
:100E10000230F235890B092FA0307207F3007608F3
:100E20007307F40074088600870101088D313525A9
:100E3000863108002000BC152A2F8D3112258731FC
:100E4000492F8C31DD2487310330492F8D3117250F
:100E50008731492F2C08D5005508DE0021088A006B
:100E600020080A0087312000D600D7015708003A31
:100E700003193B2F262F5608013A0319262F033A50
:100E800003191D2F013A03191D2F073A0319212FAA
:100E9000262F080020003C100230D5005508BB006A
:100EA000592F8D3112258731762F8D3117258731B6
:100EB000762F2E08D5005508DE000430203E86002F
:100EC0008701413F8A00403F0A0087312000D60059
:100ED000D7015708003A03196E2F552F5608023ACA
:100EE0000319512F013A0319512F552F08008C3146
:100EF000C524873120003C1C7E2F7F2F8C2F8D3105
:100F000077258731003A0319862F872F8C2F0F30D2
:100F10002000D9005908BA0020003A08D900DA01A7
:100F2000D935DA0DF2305907840087305A3D8500F3
:100F3000013F8A00003F0A0087312000DB005B0888
:100F4000BA0008002000E101E2018D3183258731DC
:100F5000003A0319AC2FAD2FA52F1F308F317C27FE
:100F6000873120005608E0005508DF006008D600F1
:100F70005F08D5003E08D8003D08D7008631052619
:100F8000873120005608E2005508E1006135DD0098
:100F9000620DDE0008002000D90055085604031930
:100FA000D22FD32FE42F5935203E860087015508D4
:100FB000C03F5608C13F5708D80059082C3E86004C
:100FC000870158088100F12F5935203E860087019E
:100FD000B230C03F0C30C13F59082C3E860087011B
:100FE0008101080003340D34D9340D34C9340D3473
:100FF000DC3404347A340534AB340D341A34073419
:1010000008340D340D340D3412340D3417340D34CE
:101010001C340D3421340D3426340D342B340D346E
:101020004A340734FA340034F434013401340034DF
:10196400013008000530080024001A08080024008B
:101974001908080020001410080024001D1608008F
:10198400210014140800200091110800240095126D
:1019940008002100911108002400161408002400F6
:1019A4009614080024001615080024009615080053
:1019B4002400110808002000911508008C31B92476
:1019C4008C31080081302200970008001630210075
:1019D4009700080024009616161608002400961294
:1019E4001616080024001C0E890C01390800240076
:1019F4001C0C890C01390800F000700824009900BF
:101A040008002000BC10BB010E3008008C31D1242A
:101A14008D31013008008C31D1248D310230080021
:101A24008C31D1248D31013008008C31D4248D3196
:101A3400003008008C31F0248D31053008008C31E1
:101A4400EC248D310A3008008C31EC248D310930BE
:101A540008002000BC10BB010E30080000308F319C
:101A64003D278D310800F10071088C31FE248D3141
:101A74000800200054088C31FE248D310800200019
:101A84005608C8005508C700080020005608C600BC
:101A94005508C500080020005608CE005508CD00A2
:101AA400080020005608CC005508CB000800200090
:101AB400D500550824009A0008002000D5005508D8
:101AC40024009B00080020005608C4005508C300E9
:101AD400080020005608CA005508C9000800200064
:101AE400D50055082400910008002400160E890C26
:101AF400890C013908002000911D812D822D7D2D36
:101B040008002200170E890C890C013908006400B2
:101B140080010131890B8A2D00348C31B6248D313A
:101B2400F0007008F90008008C31E0248D31F000D9
:101B34007008FD0008008C31B9248D31F000700864
:101B4400FA000800703021009900980122009601E3
:101B5400080020003C108C31D7248D31043008005B
:101B64002000DF01573086317D268D3108008C310D
:101B7400E0248D318936F0007008FD000800013042
:101B840021009D00A0309E009B019C0108002000C4
:101B94003C1436358D3171258D3103300800200019
:101BA400DF01DF0A573086317D268D3108002000A1
:101BB4003C140314360D8D3171258D310530080028
:101BC40040302400940008309500960113309200B0
:101BD4009512080024009C0106302000D500550809
:101BE40024009D049E019D1208002000470848041B
:101BF4000319FD2DFE2D032E48088A0047080A000C
:101C04008E31080020004B084C0403190A2E0B2EB9
:101C1400102E4C088A004B080A008E310800200060
:101C240049084A040319172E182E1D2E4A088A0043
:101C340049080A008E310800252E8D317D258E310C
:101C4400873177278E312000BC18292E2A2E1F2E8B
:101C5400080020005B08D6005A08D5005C08DD00A7
:101C64005D08D70000308731CB278E31080024006F
:101C7400951A3D2E3E2E462E403094000830950095
:101C84009601133092009516080020005B08D600D8
:101C94005A08D5005C08DD005D08D70002308731A2
:101CA400CB278E31080024009D1A592E5A2E632EFC
:101CB4009C0106302000D500550824009D049E0197
:101CC4009D1608002000D800BC1D692E6A2E732EB4
:101CD4005808D7005708B7005608B9005508B80087
:101CE400BC11080001302000D5000030D6005E0889
:101CF4008E3164268E3100302000DA00DB00DC01F6
:101D04008E312B268E310430080001302000D5009E
:101D14000030D6005E088E3164268E3100302000FB
:101D2400DA00DB00DC018E312B268E310230080014
:101D340010302000E3006308DF00573086317D2631
:101D44008E312000E4006408E50065089839E3005A
:101D54006308E500650808000F302000E30063080D
:101D6400DF00573086317D268E312000E400640880
:101D7400E50065089839E3006308E5006508080094
:101D840002302000E3006308DF00573086317D26EF
:101D94008E312000E4006408E5006508F039E300B2
:101DA4006308E500650808008D31E2258E318D3128
:101DB400EC258E318E31EC268E318D31A4258E3179
:101DC4008C31E8248E318C31E4248E318D31C1255F
:101DD4008E310800023022008C008D01FD3021007C
:101DE4008C00FF308D00083023008D0019308C00EA
:101DF400C03024008D008C012100951322009D0128
:101E04009E0108002000D601D60ABC180A2F0B2F09
:101E14001E2F3C11FF30D5005508B6008C31C52467
:101E24008F318C31CB248F318C31C8248F312000F9
:101E34003B08D5005508D600560808002000D800F5
:101E4400640023009518272F292F2000222F20001B
:101E54005808D500D60155082300910020005608E3
:101E6400230092003F302000D70057082300950537
:101E74001514130808002000DD00DE01DE0ABC187A
:101E8400442F452F592FBC14DE015D0803194B2F35
:101E94004C2F4F2FBA01BA0A532F0230DC005C08D2
:101EA400BA008C31CE248F318E311E268F31200022
:101EB4005E0808002000D901DA01551C622F632F47
:101EC400672F5708D9075808DA3D0130D735D80DA0
:101ED400890B682F0130D636D50C890B6D2F550828
:101EE4005604031D762F772F5F2F5A08D600590802
:101EF400D50008002000D8005808D700D70DD70D0A
:101F040021001D08200057068339570621009D0033
:101F14001D140330890B8C2F000021009D149D1883
:101F2400942F952F912F1C082000D60021001B0808
:101F34002000D50008002000D600D701D801B02F1A
:101F44001A302000D500F830890BA62FD50BA62F08
:101F5400000001302000D7070030D83D5808803AEF
:101F6400D50080305502031DB92F56085702031CB3
:101F7400BC2FBD2FA22F080001308F3120278F31B5
:101F84002000DB005B08C00000308F3120278F3138
:101F94002000DB005B08BF004008D6003F08D500E6
:101FA400FA30D7000030D8008F315C278F31200001
:0A1FB4005608BE005508BD000800E5
:020000040001F9
:04000E00E4FFFFFE0E
:00000001FF
